{
  "_format": "hh-sol-artifact-1",
  "contractName": "Vote",
  "sourceName": "contracts/Vote.sol",
  "abi": [
    {
      "inputs": [],
      "stateMutability": "nonpayable",
      "type": "constructor"
    },
    {
      "inputs": [
        {
          "internalType": "address",
          "name": "_newAddress",
          "type": "address"
        }
      ],
      "name": "ChangeOfOwnership",
      "outputs": [],
      "stateMutability": "nonpayable",
      "type": "function"
    },
    {
      "inputs": [
        {
          "internalType": "uint256",
          "name": "_contestantId",
          "type": "uint256"
        },
        {
          "internalType": "address",
          "name": "_voterAddress",
          "type": "address"
        }
      ],
      "name": "castVote",
      "outputs": [],
      "stateMutability": "nonpayable",
      "type": "function"
    },
    {
      "inputs": [
        {
          "internalType": "uint256",
          "name": "",
          "type": "uint256"
        }
      ],
      "name": "contestants",
      "outputs": [
        {
          "internalType": "string",
          "name": "name",
          "type": "string"
        },
        {
          "internalType": "string",
          "name": "platform",
          "type": "string"
        },
        {
          "internalType": "uint256",
          "name": "voteCount",
          "type": "uint256"
        },
        {
          "internalType": "uint256",
          "name": "contestantId",
          "type": "uint256"
        },
        {
          "internalType": "uint256",
          "name": "stateCode",
          "type": "uint256"
        },
        {
          "internalType": "uint256",
          "name": "constituencyCode",
          "type": "uint256"
        },
        {
          "internalType": "uint256",
          "name": "electionID",
          "type": "uint256"
        }
      ],
      "stateMutability": "view",
      "type": "function"
    },
    {
      "inputs": [
        {
          "internalType": "string",
          "name": "",
          "type": "string"
        }
      ],
      "name": "electionNames",
      "outputs": [
        {
          "internalType": "uint256",
          "name": "",
          "type": "uint256"
        }
      ],
      "stateMutability": "view",
      "type": "function"
    },
    {
      "inputs": [
        {
          "internalType": "uint256",
          "name": "",
          "type": "uint256"
        }
      ],
      "name": "elections",
      "outputs": [
        {
          "internalType": "string",
          "name": "electionName",
          "type": "string"
        },
        {
          "internalType": "uint256",
          "name": "electionDate",
          "type": "uint256"
        },
        {
          "internalType": "uint256",
          "name": "startTime",
          "type": "uint256"
        },
        {
          "internalType": "uint256",
          "name": "endTime",
          "type": "uint256"
        },
        {
          "internalType": "uint256",
          "name": "electionId",
          "type": "uint256"
        }
      ],
      "stateMutability": "view",
      "type": "function"
    },
    {
      "inputs": [
        {
          "internalType": "uint256",
          "name": "",
          "type": "uint256"
        }
      ],
      "name": "filteredContestants",
      "outputs": [
        {
          "internalType": "string",
          "name": "name",
          "type": "string"
        },
        {
          "internalType": "string",
          "name": "platform",
          "type": "string"
        },
        {
          "internalType": "uint256",
          "name": "voteCount",
          "type": "uint256"
        },
        {
          "internalType": "uint256",
          "name": "contestantId",
          "type": "uint256"
        },
        {
          "internalType": "uint256",
          "name": "stateCode",
          "type": "uint256"
        },
        {
          "internalType": "uint256",
          "name": "constituencyCode",
          "type": "uint256"
        },
        {
          "internalType": "uint256",
          "name": "electionID",
          "type": "uint256"
        }
      ],
      "stateMutability": "view",
      "type": "function"
    },
    {
      "inputs": [],
      "name": "getAllContestants",
      "outputs": [
        {
          "components": [
            {
              "internalType": "string",
              "name": "name",
              "type": "string"
            },
            {
              "internalType": "string",
              "name": "platform",
              "type": "string"
            },
            {
              "internalType": "uint256",
              "name": "voteCount",
              "type": "uint256"
            },
            {
              "internalType": "uint256",
              "name": "contestantId",
              "type": "uint256"
            },
            {
              "internalType": "uint256",
              "name": "stateCode",
              "type": "uint256"
            },
            {
              "internalType": "uint256",
              "name": "constituencyCode",
              "type": "uint256"
            },
            {
              "internalType": "uint256",
              "name": "electionID",
              "type": "uint256"
            }
          ],
          "internalType": "struct Vote.Contestant[]",
          "name": "",
          "type": "tuple[]"
        }
      ],
      "stateMutability": "view",
      "type": "function"
    },
    {
      "inputs": [],
      "name": "getAllElections",
      "outputs": [
        {
          "components": [
            {
              "internalType": "string",
              "name": "electionName",
              "type": "string"
            },
            {
              "internalType": "uint256",
              "name": "electionDate",
              "type": "uint256"
            },
            {
              "internalType": "uint256",
              "name": "startTime",
              "type": "uint256"
            },
            {
              "internalType": "uint256",
              "name": "endTime",
              "type": "uint256"
            },
            {
              "internalType": "uint256",
              "name": "electionId",
              "type": "uint256"
            }
          ],
          "internalType": "struct Vote.Election[]",
          "name": "",
          "type": "tuple[]"
        }
      ],
      "stateMutability": "view",
      "type": "function"
    },
    {
      "inputs": [
        {
          "internalType": "uint256",
          "name": "_contestantId",
          "type": "uint256"
        }
      ],
      "name": "getContestantInfo",
      "outputs": [
        {
          "internalType": "string",
          "name": "",
          "type": "string"
        },
        {
          "internalType": "string",
          "name": "",
          "type": "string"
        },
        {
          "internalType": "uint256",
          "name": "",
          "type": "uint256"
        },
        {
          "internalType": "uint256",
          "name": "",
          "type": "uint256"
        },
        {
          "internalType": "uint256",
          "name": "",
          "type": "uint256"
        },
        {
          "internalType": "uint256",
          "name": "",
          "type": "uint256"
        }
      ],
      "stateMutability": "view",
      "type": "function"
    },
    {
      "inputs": [],
      "name": "getElectionNames",
      "outputs": [
        {
          "internalType": "string[]",
          "name": "",
          "type": "string[]"
        }
      ],
      "stateMutability": "view",
      "type": "function"
    },
    {
      "inputs": [],
      "name": "getElectionScore",
      "outputs": [
        {
          "components": [
            {
              "internalType": "string",
              "name": "name",
              "type": "string"
            },
            {
              "internalType": "string",
              "name": "platform",
              "type": "string"
            },
            {
              "internalType": "uint256",
              "name": "voteCount",
              "type": "uint256"
            },
            {
              "internalType": "uint256",
              "name": "contestantId",
              "type": "uint256"
            },
            {
              "internalType": "uint256",
              "name": "stateCode",
              "type": "uint256"
            },
            {
              "internalType": "uint256",
              "name": "constituencyCode",
              "type": "uint256"
            }
          ],
          "internalType": "struct Vote.ElectionScore[]",
          "name": "",
          "type": "tuple[]"
        }
      ],
      "stateMutability": "view",
      "type": "function"
    },
    {
      "inputs": [],
      "name": "getNumOfVoters",
      "outputs": [
        {
          "internalType": "uint256",
          "name": "",
          "type": "uint256"
        }
      ],
      "stateMutability": "view",
      "type": "function"
    },
    {
      "inputs": [],
      "name": "getRegistrar",
      "outputs": [
        {
          "internalType": "address",
          "name": "",
          "type": "address"
        }
      ],
      "stateMutability": "view",
      "type": "function"
    },
    {
      "inputs": [
        {
          "internalType": "address",
          "name": "_voterAddress",
          "type": "address"
        }
      ],
      "name": "getVoterInfo",
      "outputs": [
        {
          "components": [
            {
              "internalType": "string",
              "name": "name",
              "type": "string"
            },
            {
              "internalType": "uint256",
              "name": "age",
              "type": "uint256"
            },
            {
              "internalType": "uint256",
              "name": "stateCode",
              "type": "uint256"
            },
            {
              "internalType": "uint256",
              "name": "voterIdNumber",
              "type": "uint256"
            },
            {
              "internalType": "uint256",
              "name": "constituencyCode",
              "type": "uint256"
            },
            {
              "internalType": "address",
              "name": "voterAddress",
              "type": "address"
            },
            {
              "internalType": "uint256",
              "name": "voted",
              "type": "uint256"
            }
          ],
          "internalType": "struct Vote.Voter",
          "name": "",
          "type": "tuple"
        }
      ],
      "stateMutability": "view",
      "type": "function"
    },
    {
      "inputs": [
        {
          "internalType": "string",
          "name": "_name",
          "type": "string"
        },
        {
          "internalType": "string",
          "name": "_platform",
          "type": "string"
        },
        {
          "internalType": "uint256",
          "name": "_stateCode",
          "type": "uint256"
        },
        {
          "internalType": "uint256",
          "name": "_constituencyCode",
          "type": "uint256"
        },
        {
          "internalType": "uint256",
          "name": "_electionID",
          "type": "uint256"
        }
      ],
      "name": "registerContestant",
      "outputs": [],
      "stateMutability": "nonpayable",
      "type": "function"
    },
    {
      "inputs": [
        {
          "internalType": "string",
          "name": "_electionName",
          "type": "string"
        },
        {
          "internalType": "uint256",
          "name": "_electionDate",
          "type": "uint256"
        },
        {
          "internalType": "uint256",
          "name": "_startTime",
          "type": "uint256"
        },
        {
          "internalType": "uint256",
          "name": "_endTime",
          "type": "uint256"
        }
      ],
      "name": "registerElection",
      "outputs": [],
      "stateMutability": "nonpayable",
      "type": "function"
    },
    {
      "inputs": [
        {
          "internalType": "string",
          "name": "_name",
          "type": "string"
        },
        {
          "internalType": "uint256",
          "name": "_age",
          "type": "uint256"
        },
        {
          "internalType": "uint256",
          "name": "_stateCode",
          "type": "uint256"
        },
        {
          "internalType": "uint256",
          "name": "_voterIdNumber",
          "type": "uint256"
        },
        {
          "internalType": "uint256",
          "name": "_constituencyCode",
          "type": "uint256"
        },
        {
          "internalType": "address",
          "name": "_voterAddress",
          "type": "address"
        }
      ],
      "name": "registerVoter",
      "outputs": [],
      "stateMutability": "nonpayable",
      "type": "function"
    },
    {
      "inputs": [
        {
          "internalType": "address",
          "name": "",
          "type": "address"
        }
      ],
      "name": "voters",
      "outputs": [
        {
          "internalType": "string",
          "name": "name",
          "type": "string"
        },
        {
          "internalType": "uint256",
          "name": "age",
          "type": "uint256"
        },
        {
          "internalType": "uint256",
          "name": "stateCode",
          "type": "uint256"
        },
        {
          "internalType": "uint256",
          "name": "voterIdNumber",
          "type": "uint256"
        },
        {
          "internalType": "uint256",
          "name": "constituencyCode",
          "type": "uint256"
        },
        {
          "internalType": "address",
          "name": "voterAddress",
          "type": "address"
        },
        {
          "internalType": "uint256",
          "name": "voted",
          "type": "uint256"
        }
      ],
      "stateMutability": "view",
      "type": "function"
    }
  ],
  "bytecode": "0x608060405234801561001057600080fd5b50600c80546001600160a01b03191633179055611e3d806100326000396000f3fe608060405234801561001057600080fd5b50600436106101165760003560e01c80639ed1f255116100a2578063a5fe0d1511610071578063a5fe0d151461029a578063bc0a5b05146102ad578063c56bfe9c146102c2578063dfd50f52146102d5578063e220cde5146102e857600080fd5b80639ed1f2551461021c578063a13b84741461023c578063a3ec138d14610261578063a57c713f1461028757600080fd5b80635ede17e5116100e95780635ede17e51461019e57806365fc783c146101d757806377df41b7146101df578063782e8256146101f25780637fd5f2681461020757600080fd5b806322bb1ae01461011b5780634d3f73341461014a578063595c41e0146101655780635e6fef011461017a575b600080fd5b61012e6101293660046115a3565b6102fd565b604051610141979695949392919061160c565b60405180910390f35b600c546040516001600160a01b039091168152602001610141565b610178610173366004611678565b61045f565b005b61018d6101883660046115a3565b6104eb565b60405161014195949392919061169a565b6101c96101ac366004611774565b805160208183018101805160088252928201919093012091525481565b604051908152602001610141565b6007546101c9565b6101786101ed3660046117b1565b6105b9565b6101fa610784565b60405161014191906117dd565b61020f6109dd565b604051610141919061188c565b61022f61022a366004611678565b610af6565b6040516101419190611913565b61024f61024a3660046115a3565b610c45565b60405161014196959493929190611980565b61027461026f366004611678565b610dae565b60405161014197969594939291906119cb565b610178610295366004611a18565b610e7c565b6101786102a8366004611a6c565b610fbf565b6102b5611112565b6040516101419190611adf565b6101786102d0366004611b8a565b6112be565b61012e6102e33660046115a3565b611447565b6102f0611462565b6040516101419190611c09565b6002818154811061030d57600080fd5b906000526020600020906007020160009150905080600001805461033090611c6b565b80601f016020809104026020016040519081016040528092919081815260200182805461035c90611c6b565b80156103a95780601f1061037e576101008083540402835291602001916103a9565b820191906000526020600020905b81548152906001019060200180831161038c57829003601f168201915b5050505050908060010180546103be90611c6b565b80601f01602080910402602001604051908101604052809291908181526020018280546103ea90611c6b565b80156104375780601f1061040c57610100808354040283529160200191610437565b820191906000526020600020905b81548152906001019060200180831161041a57829003601f168201915b5050505050908060020154908060030154908060040154908060050154908060060154905087565b600c546001600160a01b0316331461047657600080fd5b6001600160a01b0381166104c95760405162461bcd60e51b8152602060048201526015602482015274456e74657220612076616c6964206164647265737360581b60448201526064015b60405180910390fd5b600c80546001600160a01b0319166001600160a01b0392909216919091179055565b600981815481106104fb57600080fd5b906000526020600020906005020160009150905080600001805461051e90611c6b565b80601f016020809104026020016040519081016040528092919081815260200182805461054a90611c6b565b80156105975780601f1061056c57610100808354040283529160200191610597565b820191906000526020600020905b81548152906001019060200180831161057a57829003601f168201915b5050505050908060010154908060020154908060030154908060040154905085565b6001600160a01b03811660009081526006602052604081206003015490036106235760405162461bcd60e51b815260206004820152601760248201527f566f746572206973206e6f74207265676973746572656400000000000000000060448201526064016104c0565b6001600160a01b038116600090815260066020819052604090912001541561068d5760405162461bcd60e51b815260206004820152601760248201527f566f7465722068617320616c726561647920766f74656400000000000000000060448201526064016104c0565b60008281526020818152604080832060058101546001600160a01b038616855260069093529220600401541480156106e3575060048101546001600160a01b038316600090815260066020526040902060020154145b61074a5760405162461bcd60e51b815260206004820152603260248201527f566f746572206973206e6f7420656c696769626c6520746f20766f746520696e604482015271207468697320636f6e7374697475656e637960701b60648201526084016104c0565b60028101805490600061075c83611c9f565b9091555050506001600160a01b03166000908152600660208190526040909120600191015550565b6060600060045467ffffffffffffffff8111156107a3576107a36116d1565b60405190808252806020026020018201604052801561080d57816020015b6107fa6040518060c001604052806060815260200160608152602001600081526020016000815260200160008152602001600081525090565b8152602001906001900390816107c15790505b50905060005b6004548110156109d7576040805160c0810182526000838152602081905291909120805482919061084390611c6b565b80601f016020809104026020016040519081016040528092919081815260200182805461086f90611c6b565b80156108bc5780601f10610891576101008083540402835291602001916108bc565b820191906000526020600020905b81548152906001019060200180831161089f57829003601f168201915b5050505050815260200160008084815260200190815260200160002060010180546108e690611c6b565b80601f016020809104026020016040519081016040528092919081815260200182805461091290611c6b565b801561095f5780601f106109345761010080835404028352916020019161095f565b820191906000526020600020905b81548152906001019060200180831161094257829003601f168201915b5050509183525050600083815260208181526040808320600281015483860152600381015491850191909152600481015460608501528583529190526005015460809091015282518390839081106109b9576109b9611cc6565b602002602001018190525080806109cf90611c9f565b915050610813565b50919050565b60606009805480602002602001604051908101604052809291908181526020016000905b82821015610aed57838290600052602060002090600502016040518060a0016040529081600082018054610a3490611c6b565b80601f0160208091040260200160405190810160405280929190818152602001828054610a6090611c6b565b8015610aad5780601f10610a8257610100808354040283529160200191610aad565b820191906000526020600020905b815481529060010190602001808311610a9057829003601f168201915b5050505050815260200160018201548152602001600282015481526020016003820154815260200160048201548152505081526020019060010190610a01565b50505050905090565b610b3f6040518060e00160405280606081526020016000815260200160008152602001600081526020016000815260200160006001600160a01b03168152602001600081525090565b6001600160a01b03821660009081526006602052604090819020815160e081019092528054909190829082908290610b7690611c6b565b80601f0160208091040260200160405190810160405280929190818152602001828054610ba290611c6b565b8015610bef5780601f10610bc457610100808354040283529160200191610bef565b820191906000526020600020905b815481529060010190602001808311610bd257829003601f168201915b50505091835250506001820154602082015260028201546040820152600382015460608201526004820154608082015260058201546001600160a01b031660a082015260069091015460c0909101529392505050565b6060806000806000806000806000898152602001908152602001600020905080600001816001018260030154836004015484600501548560060154858054610c8c90611c6b565b80601f0160208091040260200160405190810160405280929190818152602001828054610cb890611c6b565b8015610d055780601f10610cda57610100808354040283529160200191610d05565b820191906000526020600020905b815481529060010190602001808311610ce857829003601f168201915b50505050509550848054610d1890611c6b565b80601f0160208091040260200160405190810160405280929190818152602001828054610d4490611c6b565b8015610d915780601f10610d6657610100808354040283529160200191610d91565b820191906000526020600020905b815481529060010190602001808311610d7457829003601f168201915b505050505094509650965096509650965096505091939550919395565b600660205260009081526040902080548190610dc990611c6b565b80601f0160208091040260200160405190810160405280929190818152602001828054610df590611c6b565b8015610e425780601f10610e1757610100808354040283529160200191610e42565b820191906000526020600020905b815481529060010190602001808311610e2557829003601f168201915b5050506001840154600285015460038601546004870154600588015460069098015496979396929550909350916001600160a01b03169087565b600c546001600160a01b03163314610e9357600080fd5b600884604051610ea39190611cdc565b908152602001604051809103902054600014610f015760405162461bcd60e51b815260206004820152601b60248201527f456c656374696f6e20616c72656164792072656769737465726564000000000060448201526064016104c0565b600a54600b8190556040805160a0810182528681526020810186905290810184905260608101839052608081019190915260098054600181018255600091909152815182916005027f6e1540171b6c0c960b71a7020d9f60077f6af931a8bbf590da0223dacf75c7af01908190610f789082611d47565b50602082015160018201556040820151600282015560608201516003820155608090910151600490910155600a8054906000610fb383611c9f565b91905055505050505050565b6001600160a01b038116600090815260066020526040902060030154819015610fe757600080fd5b60128610156110385760405162461bcd60e51b815260206004820152601c60248201527f596f75206d7573742062652061626f766520313820746f20766f74650000000060448201526064016104c0565b6040805160e081018252888152602080820189905281830188905260608201879052608082018690526001600160a01b03851660a08301819052600060c08401819052908152600690915291909120815182919081906110989082611d47565b506020820151600182015560408201516002820155606082015160038201556080820151600482015560a08201516005820180546001600160a01b0319166001600160a01b0390921691909117905560c0909101516006909101556007805490600061110383611c9f565b91905055505050505050505050565b60606001805480602002602001604051908101604052809291908181526020016000905b82821015610aed57838290600052602060002090600702016040518060e001604052908160008201805461116990611c6b565b80601f016020809104026020016040519081016040528092919081815260200182805461119590611c6b565b80156111e25780601f106111b7576101008083540402835291602001916111e2565b820191906000526020600020905b8154815290600101906020018083116111c557829003601f168201915b505050505081526020016001820180546111fb90611c6b565b80601f016020809104026020016040519081016040528092919081815260200182805461122790611c6b565b80156112745780601f1061124957610100808354040283529160200191611274565b820191906000526020600020905b81548152906001019060200180831161125757829003601f168201915b505050505081526020016002820154815260200160038201548152602001600482015481526020016005820154815260200160068201548152505081526020019060010190611136565b600554600090815260208190526040902060030154156112dd57600080fd5b600c546001600160a01b031633146112f457600080fd5b60045460058190556040805160e08101825287815260208082018890526000828401819052606083018590526080830188905260a0830187905260c0830186905293845283905291208151829190819061134e9082611d47565b50602082015160018201906113639082611d47565b5060408201516002820155606082015160038201556080820151600482015560a0820151600582015560c090910151600690910155600180548082018255600091909152815182916007027fb10e2d527612073b26eecdfd717e6a320cf44b4afac2b0732d9fcbe2b7fa0cf6019081906113dd9082611d47565b50602082015160018201906113f29082611d47565b5060408201518160020155606082015181600301556080820151816004015560a0820151816005015560c0820151816006015550506004600081548092919061143a90611c9f565b9190505550505050505050565b60006020819052908152604090208054819061033090611c6b565b60095460609060009067ffffffffffffffff811115611483576114836116d1565b6040519080825280602002602001820160405280156114b657816020015b60608152602001906001900390816114a15790505b50905060005b6009548110156109d757600981815481106114d9576114d9611cc6565b906000526020600020906005020160000180546114f590611c6b565b80601f016020809104026020016040519081016040528092919081815260200182805461152190611c6b565b801561156e5780601f106115435761010080835404028352916020019161156e565b820191906000526020600020905b81548152906001019060200180831161155157829003601f168201915b505050505082828151811061158557611585611cc6565b6020026020010181905250808061159b90611c9f565b9150506114bc565b6000602082840312156115b557600080fd5b5035919050565b60005b838110156115d75781810151838201526020016115bf565b50506000910152565b600081518084526115f88160208601602086016115bc565b601f01601f19169290920160200192915050565b60e08152600061161f60e083018a6115e0565b8281036020840152611631818a6115e0565b604084019890985250506060810194909452608084019290925260a083015260c09091015292915050565b80356001600160a01b038116811461167357600080fd5b919050565b60006020828403121561168a57600080fd5b6116938261165c565b9392505050565b60a0815260006116ad60a08301886115e0565b90508560208301528460408301528360608301528260808301529695505050505050565b634e487b7160e01b600052604160045260246000fd5b600082601f8301126116f857600080fd5b813567ffffffffffffffff80821115611713576117136116d1565b604051601f8301601f19908116603f0116810190828211818310171561173b5761173b6116d1565b8160405283815286602085880101111561175457600080fd5b836020870160208301376000602085830101528094505050505092915050565b60006020828403121561178657600080fd5b813567ffffffffffffffff81111561179d57600080fd5b6117a9848285016116e7565b949350505050565b600080604083850312156117c457600080fd5b823591506117d46020840161165c565b90509250929050565b60006020808301818452808551808352604092508286019150828160051b87010184880160005b8381101561187e57603f19898403018552815160c0815181865261182a828701826115e0565b915050888201518582038a87015261184282826115e0565b838a0151878b0152606080850151908801526080808501519088015260a093840151939096019290925250509386019390860190600101611804565b509098975050505050505050565b60006020808301818452808551808352604092508286019150828160051b87010184880160005b8381101561187e57603f19898403018552815160a081518186526118d9828701826115e0565b838b0151878c0152898401518a880152606080850151908801526080938401519390960192909252505093860193908601906001016118b3565b602081526000825160e060208401526119306101008401826115e0565b9050602084015160408401526040840151606084015260608401516080840152608084015160a084015260018060a01b0360a08501511660c084015260c084015160e08401528091505092915050565b60c08152600061199360c08301896115e0565b82810360208401526119a581896115e0565b9150508560408301528460608301528360808301528260a0830152979650505050505050565b60e0815260006119de60e083018a6115e0565b6020830198909852506040810195909552606085019390935260808401919091526001600160a01b031660a083015260c090910152919050565b60008060008060808587031215611a2e57600080fd5b843567ffffffffffffffff811115611a4557600080fd5b611a51878288016116e7565b97602087013597506040870135966060013595509350505050565b60008060008060008060c08789031215611a8557600080fd5b863567ffffffffffffffff811115611a9c57600080fd5b611aa889828a016116e7565b96505060208701359450604087013593506060870135925060808701359150611ad360a0880161165c565b90509295509295509295565b60006020808301818452808551808352604092508286019150828160051b87010184880160005b8381101561187e57603f19898403018552815160e08151818652611b2c828701826115e0565b915050888201518582038a870152611b4482826115e0565b838a0151878b0152606080850151908801526080808501519088015260a0808501519088015260c093840151939096019290925250509386019390860190600101611b06565b600080600080600060a08688031215611ba257600080fd5b853567ffffffffffffffff80821115611bba57600080fd5b611bc689838a016116e7565b96506020880135915080821115611bdc57600080fd5b50611be9888289016116e7565b959895975050505060408401359360608101359360809091013592509050565b6000602080830181845280855180835260408601915060408160051b870101925083870160005b82811015611c5e57603f19888603018452611c4c8583516115e0565b94509285019290850190600101611c30565b5092979650505050505050565b600181811c90821680611c7f57607f821691505b6020821081036109d757634e487b7160e01b600052602260045260246000fd5b600060018201611cbf57634e487b7160e01b600052601160045260246000fd5b5060010190565b634e487b7160e01b600052603260045260246000fd5b60008251611cee8184602087016115bc565b9190910192915050565b601f821115611d4257600081815260208120601f850160051c81016020861015611d1f5750805b601f850160051c820191505b81811015611d3e57828155600101611d2b565b5050505b505050565b815167ffffffffffffffff811115611d6157611d616116d1565b611d7581611d6f8454611c6b565b84611cf8565b602080601f831160018114611daa5760008415611d925750858301515b600019600386901b1c1916600185901b178555611d3e565b600085815260208120601f198616915b82811015611dd957888601518255948401946001909101908401611dba565b5085821015611df75787850151600019600388901b60f8161c191681555b5050505050600190811b0190555056fea26469706673582212200400dd2e68a95b5ebb146838d01aa26fe001cf8e3771a547a09e2bd94c88dfd964736f6c63430008110033",
  "linkReferences": {},
  "deployedLinkReferences": {}
}