{
  "_format": "hh-sol-artifact-1",
  "contractName": "Vote",
  "sourceName": "contracts/Vote.sol",
  "abi": [
    {
      "inputs": [],
      "stateMutability": "nonpayable",
      "type": "constructor"
    },
    {
      "inputs": [
        {
          "internalType": "address",
          "name": "_newAddress",
          "type": "address"
        }
      ],
      "name": "ChangeOfOwnership",
      "outputs": [],
      "stateMutability": "nonpayable",
      "type": "function"
    },
    {
      "inputs": [
        {
          "internalType": "uint256",
          "name": "_contestantId",
          "type": "uint256"
        },
        {
          "internalType": "address",
          "name": "_voterAddress",
          "type": "address"
        }
      ],
      "name": "castVote",
      "outputs": [],
      "stateMutability": "nonpayable",
      "type": "function"
    },
    {
      "inputs": [
        {
          "internalType": "uint256",
          "name": "",
          "type": "uint256"
        }
      ],
      "name": "contestants",
      "outputs": [
        {
          "internalType": "string",
          "name": "name",
          "type": "string"
        },
        {
          "internalType": "string",
          "name": "platform",
          "type": "string"
        },
        {
          "internalType": "uint256",
          "name": "voteCount",
          "type": "uint256"
        },
        {
          "internalType": "uint256",
          "name": "contestantId",
          "type": "uint256"
        },
        {
          "internalType": "uint256",
          "name": "stateCode",
          "type": "uint256"
        },
        {
          "internalType": "uint256",
          "name": "constituencyCode",
          "type": "uint256"
        },
        {
          "internalType": "uint256",
          "name": "electionID",
          "type": "uint256"
        }
      ],
      "stateMutability": "view",
      "type": "function"
    },
    {
      "inputs": [
        {
          "internalType": "string",
          "name": "",
          "type": "string"
        }
      ],
      "name": "electionNames",
      "outputs": [
        {
          "internalType": "uint256",
          "name": "",
          "type": "uint256"
        }
      ],
      "stateMutability": "view",
      "type": "function"
    },
    {
      "inputs": [
        {
          "internalType": "uint256",
          "name": "",
          "type": "uint256"
        }
      ],
      "name": "elections",
      "outputs": [
        {
          "internalType": "string",
          "name": "electionName",
          "type": "string"
        },
        {
          "internalType": "uint256",
          "name": "electionDate",
          "type": "uint256"
        },
        {
          "internalType": "uint256",
          "name": "startTime",
          "type": "uint256"
        },
        {
          "internalType": "uint256",
          "name": "endTime",
          "type": "uint256"
        },
        {
          "internalType": "uint256",
          "name": "electionId",
          "type": "uint256"
        }
      ],
      "stateMutability": "view",
      "type": "function"
    },
    {
      "inputs": [
        {
          "internalType": "uint256",
          "name": "",
          "type": "uint256"
        }
      ],
      "name": "filteredContestants",
      "outputs": [
        {
          "internalType": "string",
          "name": "name",
          "type": "string"
        },
        {
          "internalType": "string",
          "name": "platform",
          "type": "string"
        },
        {
          "internalType": "uint256",
          "name": "voteCount",
          "type": "uint256"
        },
        {
          "internalType": "uint256",
          "name": "contestantId",
          "type": "uint256"
        },
        {
          "internalType": "uint256",
          "name": "stateCode",
          "type": "uint256"
        },
        {
          "internalType": "uint256",
          "name": "constituencyCode",
          "type": "uint256"
        },
        {
          "internalType": "uint256",
          "name": "electionID",
          "type": "uint256"
        }
      ],
      "stateMutability": "view",
      "type": "function"
    },
    {
      "inputs": [],
      "name": "getAllContestants",
      "outputs": [
        {
          "components": [
            {
              "internalType": "string",
              "name": "name",
              "type": "string"
            },
            {
              "internalType": "string",
              "name": "platform",
              "type": "string"
            },
            {
              "internalType": "uint256",
              "name": "voteCount",
              "type": "uint256"
            },
            {
              "internalType": "uint256",
              "name": "contestantId",
              "type": "uint256"
            },
            {
              "internalType": "uint256",
              "name": "stateCode",
              "type": "uint256"
            },
            {
              "internalType": "uint256",
              "name": "constituencyCode",
              "type": "uint256"
            },
            {
              "internalType": "uint256",
              "name": "electionID",
              "type": "uint256"
            }
          ],
          "internalType": "struct Vote.Contestant[]",
          "name": "",
          "type": "tuple[]"
        }
      ],
      "stateMutability": "view",
      "type": "function"
    },
    {
      "inputs": [],
      "name": "getAllElections",
      "outputs": [
        {
          "components": [
            {
              "internalType": "string",
              "name": "electionName",
              "type": "string"
            },
            {
              "internalType": "uint256",
              "name": "electionDate",
              "type": "uint256"
            },
            {
              "internalType": "uint256",
              "name": "startTime",
              "type": "uint256"
            },
            {
              "internalType": "uint256",
              "name": "endTime",
              "type": "uint256"
            },
            {
              "internalType": "uint256",
              "name": "electionId",
              "type": "uint256"
            }
          ],
          "internalType": "struct Vote.Election[]",
          "name": "",
          "type": "tuple[]"
        }
      ],
      "stateMutability": "view",
      "type": "function"
    },
    {
      "inputs": [
        {
          "internalType": "uint256",
          "name": "_contestantId",
          "type": "uint256"
        }
      ],
      "name": "getContestantInfo",
      "outputs": [
        {
          "internalType": "string",
          "name": "",
          "type": "string"
        },
        {
          "internalType": "string",
          "name": "",
          "type": "string"
        },
        {
          "internalType": "uint256",
          "name": "",
          "type": "uint256"
        },
        {
          "internalType": "uint256",
          "name": "",
          "type": "uint256"
        },
        {
          "internalType": "uint256",
          "name": "",
          "type": "uint256"
        },
        {
          "internalType": "uint256",
          "name": "",
          "type": "uint256"
        }
      ],
      "stateMutability": "view",
      "type": "function"
    },
    {
      "inputs": [],
      "name": "getElectionNames",
      "outputs": [
        {
          "internalType": "string[]",
          "name": "",
          "type": "string[]"
        }
      ],
      "stateMutability": "view",
      "type": "function"
    },
    {
      "inputs": [],
      "name": "getElectionScore",
      "outputs": [
        {
          "components": [
            {
              "internalType": "string",
              "name": "name",
              "type": "string"
            },
            {
              "internalType": "string",
              "name": "platform",
              "type": "string"
            },
            {
              "internalType": "uint256",
              "name": "voteCount",
              "type": "uint256"
            },
            {
              "internalType": "uint256",
              "name": "contestantId",
              "type": "uint256"
            },
            {
              "internalType": "uint256",
              "name": "stateCode",
              "type": "uint256"
            },
            {
              "internalType": "uint256",
              "name": "constituencyCode",
              "type": "uint256"
            }
          ],
          "internalType": "struct Vote.ElectionScore[]",
          "name": "",
          "type": "tuple[]"
        }
      ],
      "stateMutability": "view",
      "type": "function"
    },
    {
      "inputs": [],
      "name": "getNumOfVoters",
      "outputs": [
        {
          "internalType": "uint256",
          "name": "",
          "type": "uint256"
        }
      ],
      "stateMutability": "view",
      "type": "function"
    },
    {
      "inputs": [],
      "name": "getRegistrar",
      "outputs": [
        {
          "internalType": "address",
          "name": "",
          "type": "address"
        }
      ],
      "stateMutability": "view",
      "type": "function"
    },
    {
      "inputs": [
        {
          "internalType": "address",
          "name": "_voterAddress",
          "type": "address"
        }
      ],
      "name": "getVoterInfo",
      "outputs": [
        {
          "components": [
            {
              "internalType": "string",
              "name": "name",
              "type": "string"
            },
            {
              "internalType": "uint256",
              "name": "age",
              "type": "uint256"
            },
            {
              "internalType": "uint256",
              "name": "stateCode",
              "type": "uint256"
            },
            {
              "internalType": "uint256",
              "name": "voterIdNumber",
              "type": "uint256"
            },
            {
              "internalType": "uint256",
              "name": "constituencyCode",
              "type": "uint256"
            },
            {
              "internalType": "address",
              "name": "voterAddress",
              "type": "address"
            },
            {
              "internalType": "uint256",
              "name": "voted",
              "type": "uint256"
            }
          ],
          "internalType": "struct Vote.Voter",
          "name": "",
          "type": "tuple"
        }
      ],
      "stateMutability": "view",
      "type": "function"
    },
    {
      "inputs": [
        {
          "internalType": "string",
          "name": "_name",
          "type": "string"
        },
        {
          "internalType": "string",
          "name": "_platform",
          "type": "string"
        },
        {
          "internalType": "uint256",
          "name": "_stateCode",
          "type": "uint256"
        },
        {
          "internalType": "uint256",
          "name": "_constituencyCode",
          "type": "uint256"
        },
        {
          "internalType": "uint256",
          "name": "_electionID",
          "type": "uint256"
        }
      ],
      "name": "registerContestant",
      "outputs": [],
      "stateMutability": "nonpayable",
      "type": "function"
    },
    {
      "inputs": [
        {
          "internalType": "string",
          "name": "_electionName",
          "type": "string"
        },
        {
          "internalType": "uint256",
          "name": "_electionDate",
          "type": "uint256"
        },
        {
          "internalType": "uint256",
          "name": "_startTime",
          "type": "uint256"
        },
        {
          "internalType": "uint256",
          "name": "_endTime",
          "type": "uint256"
        }
      ],
      "name": "registerElection",
      "outputs": [],
      "stateMutability": "nonpayable",
      "type": "function"
    },
    {
      "inputs": [
        {
          "internalType": "string",
          "name": "_name",
          "type": "string"
        },
        {
          "internalType": "uint256",
          "name": "_age",
          "type": "uint256"
        },
        {
          "internalType": "uint256",
          "name": "_stateCode",
          "type": "uint256"
        },
        {
          "internalType": "uint256",
          "name": "_voterIdNumber",
          "type": "uint256"
        },
        {
          "internalType": "uint256",
          "name": "_constituencyCode",
          "type": "uint256"
        },
        {
          "internalType": "address",
          "name": "_voterAddress",
          "type": "address"
        }
      ],
      "name": "registerVoter",
      "outputs": [],
      "stateMutability": "nonpayable",
      "type": "function"
    },
    {
      "inputs": [
        {
          "internalType": "address",
          "name": "",
          "type": "address"
        }
      ],
      "name": "voters",
      "outputs": [
        {
          "internalType": "string",
          "name": "name",
          "type": "string"
        },
        {
          "internalType": "uint256",
          "name": "age",
          "type": "uint256"
        },
        {
          "internalType": "uint256",
          "name": "stateCode",
          "type": "uint256"
        },
        {
          "internalType": "uint256",
          "name": "voterIdNumber",
          "type": "uint256"
        },
        {
          "internalType": "uint256",
          "name": "constituencyCode",
          "type": "uint256"
        },
        {
          "internalType": "address",
          "name": "voterAddress",
          "type": "address"
        },
        {
          "internalType": "uint256",
          "name": "voted",
          "type": "uint256"
        }
      ],
      "stateMutability": "view",
      "type": "function"
    }
  ],
  "bytecode": "0x60806040523480156200001157600080fd5b5062000042604051806060016040528060228152602001620032e760229139336200008960201b62001a951760201c565b33600c60006101000a81548173ffffffffffffffffffffffffffffffffffffffff021916908373ffffffffffffffffffffffffffffffffffffffff1602179055506200026b565b6200012b8282604051602401620000a292919062000237565b6040516020818303038152906040527f319af333000000000000000000000000000000000000000000000000000000007bffffffffffffffffffffffffffffffffffffffffffffffffffffffff19166020820180517bffffffffffffffffffffffffffffffffffffffffffffffffffffffff83818316178352505050506200012f60201b60201c565b5050565b60008151905060006a636f6e736f6c652e6c6f679050602083016000808483855afa5050505050565b600081519050919050565b600082825260208201905092915050565b60005b838110156200019457808201518184015260208101905062000177565b60008484015250505050565b6000601f19601f8301169050919050565b6000620001be8262000158565b620001ca818562000163565b9350620001dc81856020860162000174565b620001e781620001a0565b840191505092915050565b600073ffffffffffffffffffffffffffffffffffffffff82169050919050565b60006200021f82620001f2565b9050919050565b620002318162000212565b82525050565b60006040820190508181036000830152620002538185620001b1565b905062000264602083018462000226565b9392505050565b61306c806200027b6000396000f3fe608060405234801561001057600080fd5b50600436106101165760003560e01c80639ed1f255116100a2578063a5fe0d1511610071578063a5fe0d151461031c578063bc0a5b0514610338578063c56bfe9c14610356578063dfd50f5214610372578063e220cde5146103a857610116565b80639ed1f25514610265578063a13b847414610295578063a3ec138d146102ca578063a57c713f1461030057610116565b80635ede17e5116100e95780635ede17e5146101bf57806365fc783c146101ef57806377df41b71461020d578063782e8256146102295780637fd5f2681461024757610116565b806322bb1ae01461011b5780634d3f733414610151578063595c41e01461016f5780635e6fef011461018b575b600080fd5b61013560048036038101906101309190611c2d565b6103c6565b6040516101489796959493929190611cf9565b60405180910390f35b610159610528565b6040516101669190611db7565b60405180910390f35b61018960048036038101906101849190611dfe565b610552565b005b6101a560048036038101906101a09190611c2d565b61065f565b6040516101b6959493929190611e2b565b60405180910390f35b6101d960048036038101906101d49190611fba565b61072d565b6040516101e69190612003565b60405180910390f35b6101f761075b565b6040516102049190612003565b60405180910390f35b6102276004803603810190610222919061201e565b610765565b005b6102316109c5565b60405161023e9190612209565b60405180910390f35b61024f610c22565b60405161025c9190612363565b60405180910390f35b61027f600480360381019061027a9190611dfe565b610d3b565b60405161028c9190612430565b60405180910390f35b6102af60048036038101906102aa9190611c2d565b610eb4565b6040516102c196959493929190612452565b60405180910390f35b6102e460048036038101906102df9190611dfe565b61101d565b6040516102f797969594939291906124c1565b60405180910390f35b61031a60048036038101906103159190612537565b611107565b005b610336600480360381019061033191906125ba565b611283565b005b610340611459565b60405161034d91906127c8565b60405180910390f35b610370600480360381019061036b91906127ea565b61160e565b005b61038c60048036038101906103879190611c2d565b6117f3565b60405161039f9796959493929190611cf9565b60405180910390f35b6103b0611945565b6040516103bd919061295f565b60405180910390f35b600281815481106103d657600080fd5b90600052602060002090600702016000915090508060000180546103f9906129b0565b80601f0160208091040260200160405190810160405280929190818152602001828054610425906129b0565b80156104725780601f1061044757610100808354040283529160200191610472565b820191906000526020600020905b81548152906001019060200180831161045557829003601f168201915b505050505090806001018054610487906129b0565b80601f01602080910402602001604051908101604052809291908181526020018280546104b3906129b0565b80156105005780601f106104d557610100808354040283529160200191610500565b820191906000526020600020905b8154815290600101906020018083116104e357829003601f168201915b5050505050908060020154908060030154908060040154908060050154908060060154905087565b6000600c60009054906101000a900473ffffffffffffffffffffffffffffffffffffffff16905090565b600c60009054906101000a900473ffffffffffffffffffffffffffffffffffffffff1673ffffffffffffffffffffffffffffffffffffffff163373ffffffffffffffffffffffffffffffffffffffff16146105ac57600080fd5b600073ffffffffffffffffffffffffffffffffffffffff168173ffffffffffffffffffffffffffffffffffffffff160361061b576040517f08c379a000000000000000000000000000000000000000000000000000000000815260040161061290612a2d565b60405180910390fd5b80600c60006101000a81548173ffffffffffffffffffffffffffffffffffffffff021916908373ffffffffffffffffffffffffffffffffffffffff16021790555050565b6009818154811061066f57600080fd5b9060005260206000209060050201600091509050806000018054610692906129b0565b80601f01602080910402602001604051908101604052809291908181526020018280546106be906129b0565b801561070b5780601f106106e05761010080835404028352916020019161070b565b820191906000526020600020905b8154815290600101906020018083116106ee57829003601f168201915b5050505050908060010154908060020154908060030154908060040154905085565b6008818051602081018201805184825260208301602085012081835280955050505050506000915090505481565b6000600754905090565b6000600660008373ffffffffffffffffffffffffffffffffffffffff1673ffffffffffffffffffffffffffffffffffffffff16815260200190815260200160002060030154036107ea576040517f08c379a00000000000000000000000000000000000000000000000000000000081526004016107e190612a99565b60405180910390fd5b6000600660008373ffffffffffffffffffffffffffffffffffffffff1673ffffffffffffffffffffffffffffffffffffffff168152602001908152602001600020600601541461086f576040517f08c379a000000000000000000000000000000000000000000000000000000000815260040161086690612b05565b60405180910390fd5b600080600084815260200190815260200160002090508060050154600660008473ffffffffffffffffffffffffffffffffffffffff1673ffffffffffffffffffffffffffffffffffffffff1681526020019081526020016000206004015414801561091f57508060040154600660008473ffffffffffffffffffffffffffffffffffffffff1673ffffffffffffffffffffffffffffffffffffffff16815260200190815260200160002060020154145b61095e576040517f08c379a000000000000000000000000000000000000000000000000000000000815260040161095590612b97565b60405180910390fd5b80600201600081548092919061097390612be6565b91905055506001600660008473ffffffffffffffffffffffffffffffffffffffff1673ffffffffffffffffffffffffffffffffffffffff16815260200190815260200160002060060181905550505050565b6060600060045467ffffffffffffffff8111156109e5576109e4611e8f565b5b604051908082528060200260200182016040528015610a1e57816020015b610a0b611b5a565b815260200190600190039081610a035790505b50905060005b600454811015610c1a576040518060c001604052806000808481526020019081526020016000206000018054610a59906129b0565b80601f0160208091040260200160405190810160405280929190818152602001828054610a85906129b0565b8015610ad25780601f10610aa757610100808354040283529160200191610ad2565b820191906000526020600020905b815481529060010190602001808311610ab557829003601f168201915b505050505081526020016000808481526020019081526020016000206001018054610afc906129b0565b80601f0160208091040260200160405190810160405280929190818152602001828054610b28906129b0565b8015610b755780601f10610b4a57610100808354040283529160200191610b75565b820191906000526020600020905b815481529060010190602001808311610b5857829003601f168201915b5050505050815260200160008084815260200190815260200160002060020154815260200160008084815260200190815260200160002060030154815260200160008084815260200190815260200160002060040154815260200160008084815260200190815260200160002060050154815250828281518110610bfc57610bfb612c2e565b5b60200260200101819052508080610c1290612be6565b915050610a24565b508091505090565b60606009805480602002602001604051908101604052809291908181526020016000905b82821015610d3257838290600052602060002090600502016040518060a0016040529081600082018054610c79906129b0565b80601f0160208091040260200160405190810160405280929190818152602001828054610ca5906129b0565b8015610cf25780601f10610cc757610100808354040283529160200191610cf2565b820191906000526020600020905b815481529060010190602001808311610cd557829003601f168201915b5050505050815260200160018201548152602001600282015481526020016003820154815260200160048201548152505081526020019060010190610c46565b50505050905090565b610d43611b90565b6000600660008473ffffffffffffffffffffffffffffffffffffffff1673ffffffffffffffffffffffffffffffffffffffff1681526020019081526020016000209050806040518060e0016040529081600082018054610da2906129b0565b80601f0160208091040260200160405190810160405280929190818152602001828054610dce906129b0565b8015610e1b5780601f10610df057610100808354040283529160200191610e1b565b820191906000526020600020905b815481529060010190602001808311610dfe57829003601f168201915b50505050508152602001600182015481526020016002820154815260200160038201548152602001600482015481526020016005820160009054906101000a900473ffffffffffffffffffffffffffffffffffffffff1673ffffffffffffffffffffffffffffffffffffffff1673ffffffffffffffffffffffffffffffffffffffff168152602001600682015481525050915050919050565b6060806000806000806000806000898152602001908152602001600020905080600001816001018260030154836004015484600501548560060154858054610efb906129b0565b80601f0160208091040260200160405190810160405280929190818152602001828054610f27906129b0565b8015610f745780601f10610f4957610100808354040283529160200191610f74565b820191906000526020600020905b815481529060010190602001808311610f5757829003601f168201915b50505050509550848054610f87906129b0565b80601f0160208091040260200160405190810160405280929190818152602001828054610fb3906129b0565b80156110005780601f10610fd557610100808354040283529160200191611000565b820191906000526020600020905b815481529060010190602001808311610fe357829003601f168201915b505050505094509650965096509650965096505091939550919395565b6006602052806000526040600020600091509050806000018054611040906129b0565b80601f016020809104026020016040519081016040528092919081815260200182805461106c906129b0565b80156110b95780601f1061108e576101008083540402835291602001916110b9565b820191906000526020600020905b81548152906001019060200180831161109c57829003601f168201915b5050505050908060010154908060020154908060030154908060040154908060050160009054906101000a900473ffffffffffffffffffffffffffffffffffffffff16908060060154905087565b600c60009054906101000a900473ffffffffffffffffffffffffffffffffffffffff1673ffffffffffffffffffffffffffffffffffffffff163373ffffffffffffffffffffffffffffffffffffffff161461116157600080fd5b60006008856040516111739190612c99565b908152602001604051809103902054146111c2576040517f08c379a00000000000000000000000000000000000000000000000000000000081526004016111b990612cfc565b60405180910390fd5b600a54600b8190555060006040518060a00160405280868152602001858152602001848152602001838152602001600b548152509050600981908060018154018082558091505060019003906000526020600020906005020160009091909190915060008201518160000190816112399190612ec8565b50602082015181600101556040820151816002015560608201518160030155608082015181600401555050600a600081548092919061127790612be6565b91905055505050505050565b806000600660008373ffffffffffffffffffffffffffffffffffffffff1673ffffffffffffffffffffffffffffffffffffffff16815260200190815260200160002060030154146112d357600080fd5b6012861015611317576040517f08c379a000000000000000000000000000000000000000000000000000000000815260040161130e90612fe6565b60405180910390fd5b60006040518060e001604052808981526020018881526020018781526020018681526020018581526020018473ffffffffffffffffffffffffffffffffffffffff1681526020016000815250905080600660008573ffffffffffffffffffffffffffffffffffffffff1673ffffffffffffffffffffffffffffffffffffffff16815260200190815260200160002060008201518160000190816113ba9190612ec8565b506020820151816001015560408201518160020155606082015181600301556080820151816004015560a08201518160050160006101000a81548173ffffffffffffffffffffffffffffffffffffffff021916908373ffffffffffffffffffffffffffffffffffffffff16021790555060c082015181600601559050506007600081548092919061144a90612be6565b91905055505050505050505050565b60606001805480602002602001604051908101604052809291908181526020016000905b8282101561160557838290600052602060002090600702016040518060e00160405290816000820180546114b0906129b0565b80601f01602080910402602001604051908101604052809291908181526020018280546114dc906129b0565b80156115295780601f106114fe57610100808354040283529160200191611529565b820191906000526020600020905b81548152906001019060200180831161150c57829003601f168201915b50505050508152602001600182018054611542906129b0565b80601f016020809104026020016040519081016040528092919081815260200182805461156e906129b0565b80156115bb5780601f10611590576101008083540402835291602001916115bb565b820191906000526020600020905b81548152906001019060200180831161159e57829003601f168201915b50505050508152602001600282015481526020016003820154815260200160048201548152602001600582015481526020016006820154815250508152602001906001019061147d565b50505050905090565b60008060006005548152602001908152602001600020600301541461163257600080fd5b600c60009054906101000a900473ffffffffffffffffffffffffffffffffffffffff1673ffffffffffffffffffffffffffffffffffffffff163373ffffffffffffffffffffffffffffffffffffffff161461168c57600080fd5b60045460058190555060006040518060e00160405280878152602001868152602001600081526020016005548152602001858152602001848152602001838152509050806000808360600151815260200190815260200160002060008201518160000190816116fb9190612ec8565b5060208201518160010190816117119190612ec8565b5060408201518160020155606082015181600301556080820151816004015560a0820151816005015560c08201518160060155905050600181908060018154018082558091505060019003906000526020600020906007020160009091909190915060008201518160000190816117889190612ec8565b50602082015181600101908161179e9190612ec8565b5060408201518160020155606082015181600301556080820151816004015560a0820151816005015560c082015181600601555050600460008154809291906117e690612be6565b9190505550505050505050565b6000602052806000526040600020600091509050806000018054611816906129b0565b80601f0160208091040260200160405190810160405280929190818152602001828054611842906129b0565b801561188f5780601f106118645761010080835404028352916020019161188f565b820191906000526020600020905b81548152906001019060200180831161187257829003601f168201915b5050505050908060010180546118a4906129b0565b80601f01602080910402602001604051908101604052809291908181526020018280546118d0906129b0565b801561191d5780601f106118f25761010080835404028352916020019161191d565b820191906000526020600020905b81548152906001019060200180831161190057829003601f168201915b5050505050908060020154908060030154908060040154908060050154908060060154905087565b6060600060098054905067ffffffffffffffff81111561196857611967611e8f565b5b60405190808252806020026020018201604052801561199b57816020015b60608152602001906001900390816119865790505b50905060005b600980549050811015611a8d57600981815481106119c2576119c1612c2e565b5b906000526020600020906005020160000180546119de906129b0565b80601f0160208091040260200160405190810160405280929190818152602001828054611a0a906129b0565b8015611a575780601f10611a2c57610100808354040283529160200191611a57565b820191906000526020600020905b815481529060010190602001808311611a3a57829003601f168201915b5050505050828281518110611a6f57611a6e612c2e565b5b60200260200101819052508080611a8590612be6565b9150506119a1565b508091505090565b611b2d8282604051602401611aab929190613006565b6040516020818303038152906040527f319af333000000000000000000000000000000000000000000000000000000007bffffffffffffffffffffffffffffffffffffffffffffffffffffffff19166020820180517bffffffffffffffffffffffffffffffffffffffffffffffffffffffff8381831617835250505050611b31565b5050565b60008151905060006a636f6e736f6c652e6c6f679050602083016000808483855afa5050505050565b6040518060c001604052806060815260200160608152602001600081526020016000815260200160008152602001600081525090565b6040518060e001604052806060815260200160008152602001600081526020016000815260200160008152602001600073ffffffffffffffffffffffffffffffffffffffff168152602001600081525090565b6000604051905090565b600080fd5b600080fd5b6000819050919050565b611c0a81611bf7565b8114611c1557600080fd5b50565b600081359050611c2781611c01565b92915050565b600060208284031215611c4357611c42611bed565b5b6000611c5184828501611c18565b91505092915050565b600081519050919050565b600082825260208201905092915050565b60005b83811015611c94578082015181840152602081019050611c79565b60008484015250505050565b6000601f19601f8301169050919050565b6000611cbc82611c5a565b611cc68185611c65565b9350611cd6818560208601611c76565b611cdf81611ca0565b840191505092915050565b611cf381611bf7565b82525050565b600060e0820190508181036000830152611d13818a611cb1565b90508181036020830152611d278189611cb1565b9050611d366040830188611cea565b611d436060830187611cea565b611d506080830186611cea565b611d5d60a0830185611cea565b611d6a60c0830184611cea565b98975050505050505050565b600073ffffffffffffffffffffffffffffffffffffffff82169050919050565b6000611da182611d76565b9050919050565b611db181611d96565b82525050565b6000602082019050611dcc6000830184611da8565b92915050565b611ddb81611d96565b8114611de657600080fd5b50565b600081359050611df881611dd2565b92915050565b600060208284031215611e1457611e13611bed565b5b6000611e2284828501611de9565b91505092915050565b600060a0820190508181036000830152611e458188611cb1565b9050611e546020830187611cea565b611e616040830186611cea565b611e6e6060830185611cea565b611e7b6080830184611cea565b9695505050505050565b600080fd5b600080fd5b7f4e487b7100000000000000000000000000000000000000000000000000000000600052604160045260246000fd5b611ec782611ca0565b810181811067ffffffffffffffff82111715611ee657611ee5611e8f565b5b80604052505050565b6000611ef9611be3565b9050611f058282611ebe565b919050565b600067ffffffffffffffff821115611f2557611f24611e8f565b5b611f2e82611ca0565b9050602081019050919050565b82818337600083830152505050565b6000611f5d611f5884611f0a565b611eef565b905082815260208101848484011115611f7957611f78611e8a565b5b611f84848285611f3b565b509392505050565b600082601f830112611fa157611fa0611e85565b5b8135611fb1848260208601611f4a565b91505092915050565b600060208284031215611fd057611fcf611bed565b5b600082013567ffffffffffffffff811115611fee57611fed611bf2565b5b611ffa84828501611f8c565b91505092915050565b60006020820190506120186000830184611cea565b92915050565b6000806040838503121561203557612034611bed565b5b600061204385828601611c18565b925050602061205485828601611de9565b9150509250929050565b600081519050919050565b600082825260208201905092915050565b6000819050602082019050919050565b600082825260208201905092915050565b60006120a682611c5a565b6120b0818561208a565b93506120c0818560208601611c76565b6120c981611ca0565b840191505092915050565b6120dd81611bf7565b82525050565b600060c0830160008301518482036000860152612100828261209b565b9150506020830151848203602086015261211a828261209b565b915050604083015161212f60408601826120d4565b50606083015161214260608601826120d4565b50608083015161215560808601826120d4565b5060a083015161216860a08601826120d4565b508091505092915050565b600061217f83836120e3565b905092915050565b6000602082019050919050565b600061219f8261205e565b6121a98185612069565b9350836020820285016121bb8561207a565b8060005b858110156121f757848403895281516121d88582612173565b94506121e383612187565b925060208a019950506001810190506121bf565b50829750879550505050505092915050565b600060208201905081810360008301526122238184612194565b905092915050565b600081519050919050565b600082825260208201905092915050565b6000819050602082019050919050565b600060a0830160008301518482036000860152612274828261209b565b915050602083015161228960208601826120d4565b50604083015161229c60408601826120d4565b5060608301516122af60608601826120d4565b5060808301516122c260808601826120d4565b508091505092915050565b60006122d98383612257565b905092915050565b6000602082019050919050565b60006122f98261222b565b6123038185612236565b93508360208202850161231585612247565b8060005b85811015612351578484038952815161233285826122cd565b945061233d836122e1565b925060208a01995050600181019050612319565b50829750879550505050505092915050565b6000602082019050818103600083015261237d81846122ee565b905092915050565b61238e81611d96565b82525050565b600060e08301600083015184820360008601526123b1828261209b565b91505060208301516123c660208601826120d4565b5060408301516123d960408601826120d4565b5060608301516123ec60608601826120d4565b5060808301516123ff60808601826120d4565b5060a083015161241260a0860182612385565b5060c083015161242560c08601826120d4565b508091505092915050565b6000602082019050818103600083015261244a8184612394565b905092915050565b600060c082019050818103600083015261246c8189611cb1565b905081810360208301526124808188611cb1565b905061248f6040830187611cea565b61249c6060830186611cea565b6124a96080830185611cea565b6124b660a0830184611cea565b979650505050505050565b600060e08201905081810360008301526124db818a611cb1565b90506124ea6020830189611cea565b6124f76040830188611cea565b6125046060830187611cea565b6125116080830186611cea565b61251e60a0830185611da8565b61252b60c0830184611cea565b98975050505050505050565b6000806000806080858703121561255157612550611bed565b5b600085013567ffffffffffffffff81111561256f5761256e611bf2565b5b61257b87828801611f8c565b945050602061258c87828801611c18565b935050604061259d87828801611c18565b92505060606125ae87828801611c18565b91505092959194509250565b60008060008060008060c087890312156125d7576125d6611bed565b5b600087013567ffffffffffffffff8111156125f5576125f4611bf2565b5b61260189828a01611f8c565b965050602061261289828a01611c18565b955050604061262389828a01611c18565b945050606061263489828a01611c18565b935050608061264589828a01611c18565b92505060a061265689828a01611de9565b9150509295509295509295565b600081519050919050565b600082825260208201905092915050565b6000819050602082019050919050565b600060e08301600083015184820360008601526126ac828261209b565b915050602083015184820360208601526126c6828261209b565b91505060408301516126db60408601826120d4565b5060608301516126ee60608601826120d4565b50608083015161270160808601826120d4565b5060a083015161271460a08601826120d4565b5060c083015161272760c08601826120d4565b508091505092915050565b600061273e838361268f565b905092915050565b6000602082019050919050565b600061275e82612663565b612768818561266e565b93508360208202850161277a8561267f565b8060005b858110156127b657848403895281516127978582612732565b94506127a283612746565b925060208a0199505060018101905061277e565b50829750879550505050505092915050565b600060208201905081810360008301526127e28184612753565b905092915050565b600080600080600060a0868803121561280657612805611bed565b5b600086013567ffffffffffffffff81111561282457612823611bf2565b5b61283088828901611f8c565b955050602086013567ffffffffffffffff81111561285157612850611bf2565b5b61285d88828901611f8c565b945050604061286e88828901611c18565b935050606061287f88828901611c18565b925050608061289088828901611c18565b9150509295509295909350565b600081519050919050565b600082825260208201905092915050565b6000819050602082019050919050565b60006128d5838361209b565b905092915050565b6000602082019050919050565b60006128f58261289d565b6128ff81856128a8565b935083602082028501612911856128b9565b8060005b8581101561294d578484038952815161292e85826128c9565b9450612939836128dd565b925060208a01995050600181019050612915565b50829750879550505050505092915050565b6000602082019050818103600083015261297981846128ea565b905092915050565b7f4e487b7100000000000000000000000000000000000000000000000000000000600052602260045260246000fd5b600060028204905060018216806129c857607f821691505b6020821081036129db576129da612981565b5b50919050565b7f456e74657220612076616c696420616464726573730000000000000000000000600082015250565b6000612a17601583611c65565b9150612a22826129e1565b602082019050919050565b60006020820190508181036000830152612a4681612a0a565b9050919050565b7f566f746572206973206e6f742072656769737465726564000000000000000000600082015250565b6000612a83601783611c65565b9150612a8e82612a4d565b602082019050919050565b60006020820190508181036000830152612ab281612a76565b9050919050565b7f566f7465722068617320616c726561647920766f746564000000000000000000600082015250565b6000612aef601783611c65565b9150612afa82612ab9565b602082019050919050565b60006020820190508181036000830152612b1e81612ae2565b9050919050565b7f566f746572206973206e6f7420656c696769626c6520746f20766f746520696e60008201527f207468697320636f6e7374697475656e63790000000000000000000000000000602082015250565b6000612b81603283611c65565b9150612b8c82612b25565b604082019050919050565b60006020820190508181036000830152612bb081612b74565b9050919050565b7f4e487b7100000000000000000000000000000000000000000000000000000000600052601160045260246000fd5b6000612bf182611bf7565b91507fffffffffffffffffffffffffffffffffffffffffffffffffffffffffffffffff8203612c2357612c22612bb7565b5b600182019050919050565b7f4e487b7100000000000000000000000000000000000000000000000000000000600052603260045260246000fd5b600081905092915050565b6000612c7382611c5a565b612c7d8185612c5d565b9350612c8d818560208601611c76565b80840191505092915050565b6000612ca58284612c68565b915081905092915050565b7f456c656374696f6e20616c726561647920726567697374657265640000000000600082015250565b6000612ce6601b83611c65565b9150612cf182612cb0565b602082019050919050565b60006020820190508181036000830152612d1581612cd9565b9050919050565b60008190508160005260206000209050919050565b60006020601f8301049050919050565b600082821b905092915050565b600060088302612d7e7fffffffffffffffffffffffffffffffffffffffffffffffffffffffffffffffff82612d41565b612d888683612d41565b95508019841693508086168417925050509392505050565b6000819050919050565b6000612dc5612dc0612dbb84611bf7565b612da0565b611bf7565b9050919050565b6000819050919050565b612ddf83612daa565b612df3612deb82612dcc565b848454612d4e565b825550505050565b600090565b612e08612dfb565b612e13818484612dd6565b505050565b5b81811015612e3757612e2c600082612e00565b600181019050612e19565b5050565b601f821115612e7c57612e4d81612d1c565b612e5684612d31565b81016020851015612e65578190505b612e79612e7185612d31565b830182612e18565b50505b505050565b600082821c905092915050565b6000612e9f60001984600802612e81565b1980831691505092915050565b6000612eb88383612e8e565b9150826002028217905092915050565b612ed182611c5a565b67ffffffffffffffff811115612eea57612ee9611e8f565b5b612ef482546129b0565b612eff828285612e3b565b600060209050601f831160018114612f325760008415612f20578287015190505b612f2a8582612eac565b865550612f92565b601f198416612f4086612d1c565b60005b82811015612f6857848901518255600182019150602085019450602081019050612f43565b86831015612f855784890151612f81601f891682612e8e565b8355505b6001600288020188555050505b505050505050565b7f596f75206d7573742062652061626f766520313820746f20766f746500000000600082015250565b6000612fd0601c83611c65565b9150612fdb82612f9a565b602082019050919050565b60006020820190508181036000830152612fff81612fc3565b9050919050565b600060408201905081810360008301526130208185611cb1565b905061302f6020830184611da8565b939250505056fea26469706673582212204a4e9b8d63497336bdc3d25606a0d6b87df6747eceb0a6aaf1ee364777b996d564736f6c634300081100334465706c6f79696e6720566f74696e6720536d61727420436f6e7472616374202573",
  "linkReferences": {},
  "deployedLinkReferences": {}
}